:08000000803102288731EA2F4C
:100D8E0000348834640080010131890BCA2E00348E
:100D9E007D0886008701413F8A00403F0A00863168
:100DAE0008007C30873148278631003A031D080041
:100DBE0001302000A6070030A73D080001302000BA
:100DCE00A0070030A13D0F302005F30000302105B3
:100DDE00F40073087404031D08007A308731662707
:100DEE000800E530F0000630F1001230F200073056
:100DFE00F3002D30F4000730F500D830F600063041
:100E0E00F70087318F2786318631CF26863187319D
:100E1E00B92786310E2F7A30873148278731003A2D
:100E2E00031D08000F3020002205F30000302305BB
:100E3E00F40073087404031D272F7B308731662757
:100E4E0001302000A2070030A33D08007B3087311F
:100E5E0048278731003A031D08000F302000240573
:100E6E00F30000302505F40073087404031D422FAF
:100E7E007C308731662701302000A4070030A53D65
:100E8E000800F2007208860087010108803A7F3E52
:100E9E00031C532FF1015D2F7208F0007D08033EF5
:100EAE008600870170088100F101F10AFF30F00021
:100EBE007208860087017008810771080800F1002A
:100ECE00710886008701811F892F7D0886008701A2
:100EDE00423FF200720886008701433FF00072081D
:100EEE00033E86008701010871060319842F7208DC
:100EFE0086008701423FF200762F7208033E86007D
:100F0E00870181017108860087018101810A08002D
:100F1E0071082000A9007008A8007308AD007208BF
:100F2E00AC007508B1007408B0007708B5007608FB
:100F3E00B4002C30F8007808AA003030F800780899
:100F4E00AE003430F8007808B2002830F800780887
:100F5E00B600AB01AF01B301B7012830F800780835
:100F6E00FD000800F7017D08F5007508F6007D0804
:100F7E0086008701423FFD007D08033E8600870103
:100F8E0001080319DC2F7D0886008701423FFD0012
:100F9E007D087606031DC32F7D08033E860087015C
:100FAE0001080319DC2FF701F70A7708031DE82F54
:100FBE007D0886008701413F8A00403F0A00873145
:100FCE000800630008008631C7268731B8008631D5
:100FDE00C8268731B900F901FA01FB01FC01203066
:100FEE0084000030850018308631C92620008631F5
:100FFE00F82E4634693472346D3477346134723479
:10100E0065342034563465347234733469346F3435
:10101E006E34203430342E3430342E3431340034A7
:00000001FF
